{
  "contractName": "Authorizable",
  "abi": [
    {
      "inputs": [],
      "payable": false,
      "stateMutability": "nonpayable",
      "type": "constructor"
    },
    {
      "constant": true,
      "inputs": [
        {
          "name": "index",
          "type": "uint256"
        }
      ],
      "name": "authorizerAtIndex",
      "outputs": [
        {
          "name": "",
          "type": "address"
        }
      ],
      "payable": false,
      "stateMutability": "view",
      "type": "function"
    },
    {
      "constant": true,
      "inputs": [
        {
          "name": "_addr",
          "type": "address"
        }
      ],
      "name": "isAuthorized",
      "outputs": [
        {
          "name": "",
          "type": "bool"
        }
      ],
      "payable": false,
      "stateMutability": "view",
      "type": "function"
    },
    {
      "constant": false,
      "inputs": [
        {
          "name": "_addr",
          "type": "address"
        }
      ],
      "name": "authorize",
      "outputs": [],
      "payable": false,
      "stateMutability": "nonpayable",
      "type": "function"
    }
  ],
  "bytecode": "0x6060604052341561000f57600080fd5b600260008161001e91906100c2565b50336000600181548110151561003057fe5b906000526020600020900160006101000a81548173ffffffffffffffffffffffffffffffffffffffff021916908373ffffffffffffffffffffffffffffffffffffffff16021790555060018060003373ffffffffffffffffffffffffffffffffffffffff1673ffffffffffffffffffffffffffffffffffffffff16815260200190815260200160002081905550610113565b8154818355818115116100e9578183600052602060002091820191016100e891906100ee565b5b505050565b61011091905b8082111561010c5760008160009055506001016100f4565b5090565b90565b61032d806101226000396000f300606060405260043610610057576000357c0100000000000000000000000000000000000000000000000000000000900463ffffffff168063473c22281461005c578063b6a5d7de146100bf578063fe9fbb80146100f8575b600080fd5b341561006757600080fd5b61007d6004808035906020019091905050610149565b604051808273ffffffffffffffffffffffffffffffffffffffff1673ffffffffffffffffffffffffffffffffffffffff16815260200191505060405180910390f35b34156100ca57600080fd5b6100f6600480803573ffffffffffffffffffffffffffffffffffffffff1690602001909190505061018f565b005b341561010357600080fd5b61012f600480803573ffffffffffffffffffffffffffffffffffffffff16906020019091905050610265565b604051808215151515815260200191505060405180910390f35b6000806001830181548110151561015c57fe5b906000526020600020900160009054906101000a900473ffffffffffffffffffffffffffffffffffffffff169050919050565b61019833610265565b15156101a357600080fd5b600080549050600160008373ffffffffffffffffffffffffffffffffffffffff1673ffffffffffffffffffffffffffffffffffffffff168152602001908152602001600020819055506000805480919060010161020091906102b0565b5080600060016000805490500381548110151561021957fe5b906000526020600020900160006101000a81548173ffffffffffffffffffffffffffffffffffffffff021916908373ffffffffffffffffffffffffffffffffffffffff16021790555050565b600080600160008473ffffffffffffffffffffffffffffffffffffffff1673ffffffffffffffffffffffffffffffffffffffff16815260200190815260200160002054119050919050565b8154818355818115116102d7578183600052602060002091820191016102d691906102dc565b5b505050565b6102fe91905b808211156102fa5760008160009055506001016102e2565b5090565b905600a165627a7a723058206dd0afcfe38145206cf71084b6213ff75d73b6f9cba201bf6bb7bb2335a697930029",
  "source": "pragma solidity ^0.4.11;\n\ncontract Authorizable {\n\n  address[] authorizers;\n  mapping(address => uint) authorizerIndex;\n\n  modifier onlyAuthorized() {\n    require(isAuthorized(msg.sender));\n    _;\n  }\n\n  function Authorizable() {\n    authorizers.length = 2;\n    authorizers[1] = msg.sender;\n    authorizerIndex[msg.sender] = 1;\n  }\n\n  function authorizerAtIndex(uint index) external constant returns(address) {\n    return address(authorizers[index + 1]);\n  }\n\n  function isAuthorized(address _addr) constant returns(bool) {\n    return authorizerIndex[_addr] > 0;\n  }\n\n  function authorize(address _addr) external onlyAuthorized {\n    authorizerIndex[_addr] = authorizers.length;\n    authorizers.length++;\n    authorizers[authorizers.length - 1] = _addr;\n  }\n\n}",
  "sourcePath": "/Users/thanyapatk/Documents/workspace/work/helloworld-ico/contracts/ownership/Authorizable.sol",
  "compiler": {
    "name": "solc",
    "version": "0.4.19+commit.c4cbbb05.Emscripten.clang"
  },
  "schemaVersion": "1.0.1",
  "updatedAt": "2018-02-07T10:42:34.748Z"
}