{
  "contractName": "Destructible",
  "abi": [
    {
      "constant": true,
      "inputs": [],
      "name": "owner",
      "outputs": [
        {
          "name": "",
          "type": "address"
        }
      ],
      "payable": false,
      "stateMutability": "view",
      "type": "function"
    },
    {
      "constant": false,
      "inputs": [
        {
          "name": "newOwner",
          "type": "address"
        }
      ],
      "name": "transferOwnership",
      "outputs": [],
      "payable": false,
      "stateMutability": "nonpayable",
      "type": "function"
    },
    {
      "inputs": [],
      "payable": true,
      "stateMutability": "payable",
      "type": "constructor"
    },
    {
      "constant": false,
      "inputs": [],
      "name": "destroy",
      "outputs": [],
      "payable": false,
      "stateMutability": "nonpayable",
      "type": "function"
    },
    {
      "constant": false,
      "inputs": [
        {
          "name": "_recipient",
          "type": "address"
        }
      ],
      "name": "destroyAndSend",
      "outputs": [],
      "payable": false,
      "stateMutability": "nonpayable",
      "type": "function"
    }
  ],
  "bytecode": "0x6060604052336000806101000a81548173ffffffffffffffffffffffffffffffffffffffff021916908373ffffffffffffffffffffffffffffffffffffffff160217905550610377806100536000396000f300606060405260043610610062576000357c0100000000000000000000000000000000000000000000000000000000900463ffffffff16806383197ef0146100675780638da5cb5b1461007c578063f2fde38b146100d1578063f5074f411461010a575b600080fd5b341561007257600080fd5b61007a610143565b005b341561008757600080fd5b61008f6101d8565b604051808273ffffffffffffffffffffffffffffffffffffffff1673ffffffffffffffffffffffffffffffffffffffff16815260200191505060405180910390f35b34156100dc57600080fd5b610108600480803573ffffffffffffffffffffffffffffffffffffffff169060200190919050506101fd565b005b341561011557600080fd5b610141600480803573ffffffffffffffffffffffffffffffffffffffff169060200190919050506102d7565b005b6000809054906101000a900473ffffffffffffffffffffffffffffffffffffffff1673ffffffffffffffffffffffffffffffffffffffff163373ffffffffffffffffffffffffffffffffffffffff1614151561019e57600080fd5b6000809054906101000a900473ffffffffffffffffffffffffffffffffffffffff1673ffffffffffffffffffffffffffffffffffffffff16ff5b6000809054906101000a900473ffffffffffffffffffffffffffffffffffffffff1681565b6000809054906101000a900473ffffffffffffffffffffffffffffffffffffffff1673ffffffffffffffffffffffffffffffffffffffff163373ffffffffffffffffffffffffffffffffffffffff1614151561025857600080fd5b600073ffffffffffffffffffffffffffffffffffffffff168173ffffffffffffffffffffffffffffffffffffffff161415151561029457600080fd5b806000806101000a81548173ffffffffffffffffffffffffffffffffffffffff021916908373ffffffffffffffffffffffffffffffffffffffff16021790555050565b6000809054906101000a900473ffffffffffffffffffffffffffffffffffffffff1673ffffffffffffffffffffffffffffffffffffffff163373ffffffffffffffffffffffffffffffffffffffff1614151561033257600080fd5b8073ffffffffffffffffffffffffffffffffffffffff16ff00a165627a7a7230582083e0b1d44d7c8d61ee72d632d1ed5d862c6277a66e239e84ebede484276344b80029",
  "source": "pragma solidity ^0.4.11;\n\nimport \"../ownership/Ownable.sol\";\n\n\n/**\n * @title Destructible\n * @dev Base contract that can be destroyed by owner. All funds in contract will be sent to the owner.\n */\ncontract Destructible is Ownable {\n\n    function Destructible() payable { } \n\n    /**\n    * @dev Transfers the current balance to the owner and terminates the contract. \n    */\n    function destroy() onlyOwner {\n        selfdestruct(owner);\n    }\n\n    function destroyAndSend(address _recipient) onlyOwner {\n        selfdestruct(_recipient);\n    }\n}\n",
  "sourcePath": "/Users/thanyapatk/Documents/workspace/work/helloworld-ico/contracts/lifecycle/Destructible.sol",
  "compiler": {
    "name": "solc",
    "version": "0.4.19+commit.c4cbbb05.Emscripten.clang"
  },
  "schemaVersion": "1.0.1",
  "updatedAt": "2018-02-07T10:42:34.746Z"
}