{
  "contractName": "Freezable",
  "abi": [
    {
      "constant": true,
      "inputs": [
        {
          "name": "",
          "type": "address"
        }
      ],
      "name": "frozenAccounts",
      "outputs": [
        {
          "name": "",
          "type": "bool"
        }
      ],
      "payable": false,
      "stateMutability": "view",
      "type": "function"
    },
    {
      "constant": true,
      "inputs": [],
      "name": "owner",
      "outputs": [
        {
          "name": "",
          "type": "address"
        }
      ],
      "payable": false,
      "stateMutability": "view",
      "type": "function"
    },
    {
      "constant": false,
      "inputs": [
        {
          "name": "newOwner",
          "type": "address"
        }
      ],
      "name": "transferOwnership",
      "outputs": [],
      "payable": false,
      "stateMutability": "nonpayable",
      "type": "function"
    },
    {
      "anonymous": false,
      "inputs": [
        {
          "indexed": true,
          "name": "account",
          "type": "address"
        },
        {
          "indexed": false,
          "name": "isFrozen",
          "type": "bool"
        }
      ],
      "name": "Frozen",
      "type": "event"
    },
    {
      "constant": false,
      "inputs": [
        {
          "name": "_addr",
          "type": "address"
        },
        {
          "name": "freeze",
          "type": "bool"
        }
      ],
      "name": "freezeAccount",
      "outputs": [],
      "payable": false,
      "stateMutability": "nonpayable",
      "type": "function"
    },
    {
      "constant": false,
      "inputs": [
        {
          "name": "_addrs",
          "type": "address[]"
        },
        {
          "name": "freeze",
          "type": "bool"
        }
      ],
      "name": "freezeAccounts",
      "outputs": [],
      "payable": false,
      "stateMutability": "nonpayable",
      "type": "function"
    },
    {
      "constant": false,
      "inputs": [
        {
          "name": "_addr",
          "type": "address"
        }
      ],
      "name": "isFrozen",
      "outputs": [
        {
          "name": "",
          "type": "bool"
        }
      ],
      "payable": false,
      "stateMutability": "nonpayable",
      "type": "function"
    }
  ],
  "bytecode": "0x6060604052336000806101000a81548173ffffffffffffffffffffffffffffffffffffffff021916908373ffffffffffffffffffffffffffffffffffffffff160217905550610677806100536000396000f300606060405260043610610078576000357c0100000000000000000000000000000000000000000000000000000000900463ffffffff168063860838a51461007d5780638da5cb5b146100ce578063c341b9f614610123578063e583983614610188578063e724529c146101d9578063f2fde38b1461021d575b600080fd5b341561008857600080fd5b6100b4600480803573ffffffffffffffffffffffffffffffffffffffff16906020019091905050610256565b604051808215151515815260200191505060405180910390f35b34156100d957600080fd5b6100e1610276565b604051808273ffffffffffffffffffffffffffffffffffffffff1673ffffffffffffffffffffffffffffffffffffffff16815260200191505060405180910390f35b341561012e57600080fd5b610186600480803590602001908201803590602001908080602002602001604051908101604052809392919081815260200183836020028082843782019150505050505091908035151590602001909190505061029b565b005b341561019357600080fd5b6101bf600480803573ffffffffffffffffffffffffffffffffffffffff169060200190919050506103f8565b604051808215151515815260200191505060405180910390f35b34156101e457600080fd5b61021b600480803573ffffffffffffffffffffffffffffffffffffffff16906020019091908035151590602001909190505061044e565b005b341561022857600080fd5b610254600480803573ffffffffffffffffffffffffffffffffffffffff16906020019091905050610571565b005b60016020528060005260406000206000915054906101000a900460ff1681565b6000809054906101000a900473ffffffffffffffffffffffffffffffffffffffff1681565b6000806000809054906101000a900473ffffffffffffffffffffffffffffffffffffffff1673ffffffffffffffffffffffffffffffffffffffff163373ffffffffffffffffffffffffffffffffffffffff161415156102f957600080fd5b600091505b83518210156103f257838281518110151561031557fe5b90602001906020020151905061032a816103f8565b15158315151415151561033c57600080fd5b82600160008373ffffffffffffffffffffffffffffffffffffffff1673ffffffffffffffffffffffffffffffffffffffff16815260200190815260200160002060006101000a81548160ff0219169083151502179055508073ffffffffffffffffffffffffffffffffffffffff167f713eb400302cebac61f82eb8de5051d38458517ffac43ae45f4a9fd5d09ee69884604051808215151515815260200191505060405180910390a281806001019250506102fe565b50505050565b6000600160008373ffffffffffffffffffffffffffffffffffffffff1673ffffffffffffffffffffffffffffffffffffffff16815260200190815260200160002060009054906101000a900460ff169050919050565b6000809054906101000a900473ffffffffffffffffffffffffffffffffffffffff1673ffffffffffffffffffffffffffffffffffffffff163373ffffffffffffffffffffffffffffffffffffffff161415156104a957600080fd5b6104b2826103f8565b1515811515141515156104c457600080fd5b80600160008473ffffffffffffffffffffffffffffffffffffffff1673ffffffffffffffffffffffffffffffffffffffff16815260200190815260200160002060006101000a81548160ff0219169083151502179055508173ffffffffffffffffffffffffffffffffffffffff167f713eb400302cebac61f82eb8de5051d38458517ffac43ae45f4a9fd5d09ee69882604051808215151515815260200191505060405180910390a25050565b6000809054906101000a900473ffffffffffffffffffffffffffffffffffffffff1673ffffffffffffffffffffffffffffffffffffffff163373ffffffffffffffffffffffffffffffffffffffff161415156105cc57600080fd5b600073ffffffffffffffffffffffffffffffffffffffff168173ffffffffffffffffffffffffffffffffffffffff161415151561060857600080fd5b806000806101000a81548173ffffffffffffffffffffffffffffffffffffffff021916908373ffffffffffffffffffffffffffffffffffffffff160217905550505600a165627a7a72305820b3e781527dcfc28f0789718581116673ce05f321755f166b01d7d6e889681f8c0029",
  "source": "pragma solidity ^0.4.11;\n\nimport '../ownership/Ownable.sol';\n\n\ncontract Freezable is Ownable {\n\n    mapping (address => bool) public frozenAccounts;\n    event Frozen(address indexed account, bool isFrozen);\n\n    modifier isNotFrozen () {\n        require(!frozenAccounts[msg.sender]);\n        _;\n    }\n\n    function freezeAccount (address _addr, bool freeze) onlyOwner {\n        require(freeze != isFrozen(_addr)); // don't freeze a frozen account\n        frozenAccounts[_addr] = freeze;\n        Frozen(_addr, freeze);\n    }\n\n    function freezeAccounts (address[] _addrs, bool freeze) onlyOwner {\n        for (uint i = 0; i < _addrs.length; i++) {\n            address _addr = _addrs[i];\n            require(freeze != isFrozen(_addr)); // don't freeze a frozen account\n            frozenAccounts[_addr] = freeze;\n            Frozen(_addr, freeze);\n        }\n    }\n\n    function isFrozen (address _addr) returns (bool) {\n        return frozenAccounts[_addr];\n    }\n\n}",
  "sourcePath": "/Users/thanyapatk/Documents/workspace/work/helloworld-ico/contracts/lifecycle/Freezable.sol",
  "compiler": {
    "name": "solc",
    "version": "0.4.19+commit.c4cbbb05.Emscripten.clang"
  },
  "schemaVersion": "1.0.1",
  "updatedAt": "2018-02-07T21:08:44.736Z"
}