{
  "contractName": "Ownable",
  "abi": [
    {
      "constant": true,
      "inputs": [],
      "name": "owner",
      "outputs": [
        {
          "name": "",
          "type": "address"
        }
      ],
      "payable": false,
      "stateMutability": "view",
      "type": "function"
    },
    {
      "inputs": [],
      "payable": false,
      "stateMutability": "nonpayable",
      "type": "constructor"
    },
    {
      "constant": false,
      "inputs": [
        {
          "name": "newOwner",
          "type": "address"
        }
      ],
      "name": "transferOwnership",
      "outputs": [],
      "payable": false,
      "stateMutability": "nonpayable",
      "type": "function"
    }
  ],
  "bytecode": "0x6060604052341561000f57600080fd5b336000806101000a81548173ffffffffffffffffffffffffffffffffffffffff021916908373ffffffffffffffffffffffffffffffffffffffff16021790555061020a8061005e6000396000f30060606040526004361061004c576000357c0100000000000000000000000000000000000000000000000000000000900463ffffffff1680638da5cb5b14610051578063f2fde38b146100a6575b600080fd5b341561005c57600080fd5b6100646100df565b604051808273ffffffffffffffffffffffffffffffffffffffff1673ffffffffffffffffffffffffffffffffffffffff16815260200191505060405180910390f35b34156100b157600080fd5b6100dd600480803573ffffffffffffffffffffffffffffffffffffffff16906020019091905050610104565b005b6000809054906101000a900473ffffffffffffffffffffffffffffffffffffffff1681565b6000809054906101000a900473ffffffffffffffffffffffffffffffffffffffff1673ffffffffffffffffffffffffffffffffffffffff163373ffffffffffffffffffffffffffffffffffffffff1614151561015f57600080fd5b600073ffffffffffffffffffffffffffffffffffffffff168173ffffffffffffffffffffffffffffffffffffffff161415151561019b57600080fd5b806000806101000a81548173ffffffffffffffffffffffffffffffffffffffff021916908373ffffffffffffffffffffffffffffffffffffffff160217905550505600a165627a7a723058200a4b8d91626295b59d647d592a565802a7ad8f958508ab2af207768f85a9f5960029",
  "source": "pragma solidity ^0.4.11;\n\n\n/**\n * @title Ownable\n * @dev The Ownable contract has an owner address, and provides basic authorization control\n * functions, this simplifies the implementation of \"user permissions\".\n */\ncontract Ownable {\n    address public owner;\n\n\n    /**\n    * @dev The Ownable constructor sets the original `owner` of the contract to the sender\n    * account.\n    */\n    function Ownable() {\n        owner = msg.sender;\n    }\n\n\n    /**\n    * @dev Throws if called by any account other than the owner.\n    */\n    modifier onlyOwner() {\n        require(msg.sender == owner);\n        _;\n    }\n\n\n    /**\n    * @dev Allows the current owner to transfer control of the contract to a newOwner.\n    * @param newOwner The address to transfer ownership to.\n    */\n    function transferOwnership(address newOwner) onlyOwner {\n        require(newOwner != address(0));      \n        owner = newOwner;\n    }\n\n}\n",
  "sourcePath": "/Users/thanyapatk/Documents/workspace/work/helloworld-ico/contracts/ownership/Ownable.sol",
  "compiler": {
    "name": "solc",
    "version": "0.4.19+commit.c4cbbb05.Emscripten.clang"
  },
  "schemaVersion": "1.0.1",
  "updatedAt": "2018-02-07T10:42:34.748Z"
}