{
  "contractName": "TokenSeller",
  "abi": [
    {
      "constant": true,
      "inputs": [],
      "name": "duration",
      "outputs": [
        {
          "name": "",
          "type": "uint256"
        }
      ],
      "payable": false,
      "stateMutability": "view",
      "type": "function"
    },
    {
      "constant": true,
      "inputs": [],
      "name": "rate",
      "outputs": [
        {
          "name": "",
          "type": "uint256"
        }
      ],
      "payable": false,
      "stateMutability": "view",
      "type": "function"
    },
    {
      "constant": false,
      "inputs": [],
      "name": "unpause",
      "outputs": [],
      "payable": false,
      "stateMutability": "nonpayable",
      "type": "function"
    },
    {
      "constant": true,
      "inputs": [],
      "name": "saleTarget",
      "outputs": [
        {
          "name": "",
          "type": "uint256"
        }
      ],
      "payable": false,
      "stateMutability": "view",
      "type": "function"
    },
    {
      "constant": true,
      "inputs": [],
      "name": "wallet",
      "outputs": [
        {
          "name": "",
          "type": "address"
        }
      ],
      "payable": false,
      "stateMutability": "view",
      "type": "function"
    },
    {
      "constant": true,
      "inputs": [],
      "name": "amountSold",
      "outputs": [
        {
          "name": "",
          "type": "uint256"
        }
      ],
      "payable": false,
      "stateMutability": "view",
      "type": "function"
    },
    {
      "constant": true,
      "inputs": [],
      "name": "paused",
      "outputs": [
        {
          "name": "",
          "type": "bool"
        }
      ],
      "payable": false,
      "stateMutability": "view",
      "type": "function"
    },
    {
      "constant": false,
      "inputs": [],
      "name": "destroy",
      "outputs": [],
      "payable": false,
      "stateMutability": "nonpayable",
      "type": "function"
    },
    {
      "constant": false,
      "inputs": [],
      "name": "pause",
      "outputs": [],
      "payable": false,
      "stateMutability": "nonpayable",
      "type": "function"
    },
    {
      "constant": true,
      "inputs": [],
      "name": "owner",
      "outputs": [
        {
          "name": "",
          "type": "address"
        }
      ],
      "payable": false,
      "stateMutability": "view",
      "type": "function"
    },
    {
      "constant": true,
      "inputs": [],
      "name": "whitelist",
      "outputs": [
        {
          "name": "",
          "type": "address"
        }
      ],
      "payable": false,
      "stateMutability": "view",
      "type": "function"
    },
    {
      "constant": true,
      "inputs": [],
      "name": "minToken",
      "outputs": [
        {
          "name": "",
          "type": "uint256"
        }
      ],
      "payable": false,
      "stateMutability": "view",
      "type": "function"
    },
    {
      "constant": true,
      "inputs": [],
      "name": "start",
      "outputs": [
        {
          "name": "",
          "type": "uint256"
        }
      ],
      "payable": false,
      "stateMutability": "view",
      "type": "function"
    },
    {
      "constant": true,
      "inputs": [],
      "name": "maxToken",
      "outputs": [
        {
          "name": "",
          "type": "uint256"
        }
      ],
      "payable": false,
      "stateMutability": "view",
      "type": "function"
    },
    {
      "constant": false,
      "inputs": [
        {
          "name": "newOwner",
          "type": "address"
        }
      ],
      "name": "transferOwnership",
      "outputs": [],
      "payable": false,
      "stateMutability": "nonpayable",
      "type": "function"
    },
    {
      "constant": false,
      "inputs": [
        {
          "name": "_recipient",
          "type": "address"
        }
      ],
      "name": "destroyAndSend",
      "outputs": [],
      "payable": false,
      "stateMutability": "nonpayable",
      "type": "function"
    },
    {
      "constant": true,
      "inputs": [],
      "name": "token",
      "outputs": [
        {
          "name": "",
          "type": "address"
        }
      ],
      "payable": false,
      "stateMutability": "view",
      "type": "function"
    },
    {
      "inputs": [
        {
          "name": "_token",
          "type": "address"
        },
        {
          "name": "_whitelist",
          "type": "address"
        }
      ],
      "payable": false,
      "stateMutability": "nonpayable",
      "type": "constructor"
    },
    {
      "payable": true,
      "stateMutability": "payable",
      "type": "fallback"
    },
    {
      "anonymous": false,
      "inputs": [
        {
          "indexed": false,
          "name": "recipient",
          "type": "address"
        },
        {
          "indexed": false,
          "name": "eth",
          "type": "uint256"
        },
        {
          "indexed": false,
          "name": "tokens",
          "type": "uint256"
        }
      ],
      "name": "TokenSold",
      "type": "event"
    },
    {
      "anonymous": false,
      "inputs": [],
      "name": "SaleClosed",
      "type": "event"
    },
    {
      "anonymous": false,
      "inputs": [],
      "name": "Pause",
      "type": "event"
    },
    {
      "anonymous": false,
      "inputs": [],
      "name": "Unpause",
      "type": "event"
    },
    {
      "constant": false,
      "inputs": [],
      "name": "closeSale",
      "outputs": [],
      "payable": false,
      "stateMutability": "nonpayable",
      "type": "function"
    }
  ],
  "bytecode": "0x606060405260008060146101000a81548160ff0219169083151502179055506317d784006004556103e8600655629896806007556103e86008556359a6ef10600955601f600a55341561005157600080fd5b6040516040806112bb83398101604052808051906020019091908051906020019091905050336000806101000a81548173ffffffffffffffffffffffffffffffffffffffff021916908373ffffffffffffffffffffffffffffffffffffffff16021790555081600160006101000a81548173ffffffffffffffffffffffffffffffffffffffff021916908373ffffffffffffffffffffffffffffffffffffffff16021790555080600260006101000a81548173ffffffffffffffffffffffffffffffffffffffff021916908373ffffffffffffffffffffffffffffffffffffffff1602179055506000809054906101000a900473ffffffffffffffffffffffffffffffffffffffff16600360006101000a81548173ffffffffffffffffffffffffffffffffffffffff021916908373ffffffffffffffffffffffffffffffffffffffff1602179055505050611110806101ab6000396000f3006060604052600436106100fc576000357c0100000000000000000000000000000000000000000000000000000000900463ffffffff1680630fb5a6b4146101085780632c4e722e146101315780633f4ba83a1461015a5780634f3a49451461016f578063521eb2731461019857806352a16bb0146101ed5780635c975abb1461021657806383197ef0146102435780638456cb59146102585780638da5cb5b1461026d57806393e59dc1146102c2578063a859a09214610317578063be9a655514610340578063ca69e32314610369578063ee55efee14610392578063f2fde38b146103a7578063f5074f41146103e0578063fc0c546a14610419575b610106333461046e565b005b341561011357600080fd5b61011b6107d6565b6040518082815260200191505060405180910390f35b341561013c57600080fd5b6101446107dc565b6040518082815260200191505060405180910390f35b341561016557600080fd5b61016d6107e2565b005b341561017a57600080fd5b6101826108a0565b6040518082815260200191505060405180910390f35b34156101a357600080fd5b6101ab6108a6565b604051808273ffffffffffffffffffffffffffffffffffffffff1673ffffffffffffffffffffffffffffffffffffffff16815260200191505060405180910390f35b34156101f857600080fd5b6102006108cc565b6040518082815260200191505060405180910390f35b341561022157600080fd5b6102296108d2565b604051808215151515815260200191505060405180910390f35b341561024e57600080fd5b6102566108e5565b005b341561026357600080fd5b61026b61097a565b005b341561027857600080fd5b610280610a3a565b604051808273ffffffffffffffffffffffffffffffffffffffff1673ffffffffffffffffffffffffffffffffffffffff16815260200191505060405180910390f35b34156102cd57600080fd5b6102d5610a5f565b604051808273ffffffffffffffffffffffffffffffffffffffff1673ffffffffffffffffffffffffffffffffffffffff16815260200191505060405180910390f35b341561032257600080fd5b61032a610a85565b6040518082815260200191505060405180910390f35b341561034b57600080fd5b610353610a8b565b6040518082815260200191505060405180910390f35b341561037457600080fd5b61037c610a91565b6040518082815260200191505060405180910390f35b341561039d57600080fd5b6103a5610a97565b005b34156103b257600080fd5b6103de600480803573ffffffffffffffffffffffffffffffffffffffff16906020019091905050610d09565b005b34156103eb57600080fd5b610417600480803573ffffffffffffffffffffffffffffffffffffffff16906020019091905050610de3565b005b341561042457600080fd5b61042c610e57565b604051808273ffffffffffffffffffffffffffffffffffffffff1673ffffffffffffffffffffffffffffffffffffffff16815260200191505060405180910390f35b600060045460055410151561048257600080fd5b600954421180156104bd57506104ba6104a962015180600a54610e7d90919063ffffffff16565b600954610eb090919063ffffffff16565b42105b15156104c857600080fd5b600060149054906101000a900460ff161515156104e457600080fd5b600260009054906101000a900473ffffffffffffffffffffffffffffffffffffffff1673ffffffffffffffffffffffffffffffffffffffff16636f9170f6846000604051602001526040518263ffffffff167c0100000000000000000000000000000000000000000000000000000000028152600401808273ffffffffffffffffffffffffffffffffffffffff1673ffffffffffffffffffffffffffffffffffffffff168152602001915050602060405180830381600087803b15156105a957600080fd5b6102c65a03f115156105ba57600080fd5b5050506040518051905015156105cf57600080fd5b6105d882610ece565b90506105e381611066565b15156105ee57600080fd5b600160009054906101000a900473ffffffffffffffffffffffffffffffffffffffff1673ffffffffffffffffffffffffffffffffffffffff1663a9059cbb84836000604051602001526040518363ffffffff167c0100000000000000000000000000000000000000000000000000000000028152600401808373ffffffffffffffffffffffffffffffffffffffff1673ffffffffffffffffffffffffffffffffffffffff16815260200182815260200192505050602060405180830381600087803b15156106bb57600080fd5b6102c65a03f115156106cc57600080fd5b5050506040518051905015156106e157600080fd5b6106f681600554610eb090919063ffffffff16565b600581905550600360009054906101000a900473ffffffffffffffffffffffffffffffffffffffff1673ffffffffffffffffffffffffffffffffffffffff166108fc839081150290604051600060405180830381858888f19350505050151561075e57600080fd5b7f35ea94addbc62df281ade49cc2ad9b3d9259166170cf702928b4ddc045f7256e838383604051808473ffffffffffffffffffffffffffffffffffffffff1673ffffffffffffffffffffffffffffffffffffffff168152602001838152602001828152602001935050505060405180910390a1505050565b600a5481565b60085481565b6000809054906101000a900473ffffffffffffffffffffffffffffffffffffffff1673ffffffffffffffffffffffffffffffffffffffff163373ffffffffffffffffffffffffffffffffffffffff1614151561083d57600080fd5b600060149054906101000a900460ff16151561085857600080fd5b60008060146101000a81548160ff0219169083151502179055507f7805862f689e2f13df9f062ff482ad3ad112aca9e0847911ed832e158c525b3360405160405180910390a1565b60045481565b600360009054906101000a900473ffffffffffffffffffffffffffffffffffffffff1681565b60055481565b600060149054906101000a900460ff1681565b6000809054906101000a900473ffffffffffffffffffffffffffffffffffffffff1673ffffffffffffffffffffffffffffffffffffffff163373ffffffffffffffffffffffffffffffffffffffff1614151561094057600080fd5b6000809054906101000a900473ffffffffffffffffffffffffffffffffffffffff1673ffffffffffffffffffffffffffffffffffffffff16ff5b6000809054906101000a900473ffffffffffffffffffffffffffffffffffffffff1673ffffffffffffffffffffffffffffffffffffffff163373ffffffffffffffffffffffffffffffffffffffff161415156109d557600080fd5b600060149054906101000a900460ff161515156109f157600080fd5b6001600060146101000a81548160ff0219169083151502179055507f6985a02210a168e66602d3235cb6db0e70f92b3ba4d376a33c0f3d9434bff62560405160405180910390a1565b6000809054906101000a900473ffffffffffffffffffffffffffffffffffffffff1681565b600260009054906101000a900473ffffffffffffffffffffffffffffffffffffffff1681565b60065481565b60095481565b60075481565b6000809054906101000a900473ffffffffffffffffffffffffffffffffffffffff1673ffffffffffffffffffffffffffffffffffffffff163373ffffffffffffffffffffffffffffffffffffffff16141515610af257600080fd5b600160009054906101000a900473ffffffffffffffffffffffffffffffffffffffff1673ffffffffffffffffffffffffffffffffffffffff1663a9059cbb6000809054906101000a900473ffffffffffffffffffffffffffffffffffffffff16600160009054906101000a900473ffffffffffffffffffffffffffffffffffffffff1673ffffffffffffffffffffffffffffffffffffffff166370a08231306000604051602001526040518263ffffffff167c0100000000000000000000000000000000000000000000000000000000028152600401808273ffffffffffffffffffffffffffffffffffffffff1673ffffffffffffffffffffffffffffffffffffffff168152602001915050602060405180830381600087803b1515610c1757600080fd5b6102c65a03f11515610c2857600080fd5b505050604051805190506000604051602001526040518363ffffffff167c0100000000000000000000000000000000000000000000000000000000028152600401808373ffffffffffffffffffffffffffffffffffffffff1673ffffffffffffffffffffffffffffffffffffffff16815260200182815260200192505050602060405180830381600087803b1515610cbf57600080fd5b6102c65a03f11515610cd057600080fd5b50505060405180519050507f4c013bd73202fde3c7cfe26ca486d0882f2c5b2fc9c761b15212f759bd2347dd60405160405180910390a1565b6000809054906101000a900473ffffffffffffffffffffffffffffffffffffffff1673ffffffffffffffffffffffffffffffffffffffff163373ffffffffffffffffffffffffffffffffffffffff16141515610d6457600080fd5b600073ffffffffffffffffffffffffffffffffffffffff168173ffffffffffffffffffffffffffffffffffffffff1614151515610da057600080fd5b806000806101000a81548173ffffffffffffffffffffffffffffffffffffffff021916908373ffffffffffffffffffffffffffffffffffffffff16021790555050565b6000809054906101000a900473ffffffffffffffffffffffffffffffffffffffff1673ffffffffffffffffffffffffffffffffffffffff163373ffffffffffffffffffffffffffffffffffffffff16141515610e3e57600080fd5b8073ffffffffffffffffffffffffffffffffffffffff16ff5b600160009054906101000a900473ffffffffffffffffffffffffffffffffffffffff1681565b60008082840290506000841480610e9e5750828482811515610e9b57fe5b04145b1515610ea657fe5b8091505092915050565b6000808284019050838110151515610ec457fe5b8091505092915050565b600080600080600060085493506000925060095442118015610f065750610f0362015180600954610eb090919063ffffffff16565b42105b15610f145760149250610ff1565b610f2c62015180600954610eb090919063ffffffff16565b42118015610f505750610f4d6202a300600954610eb090919063ffffffff16565b42105b15610f5e57600f9250610ff0565b610f766202a300600954610eb090919063ffffffff16565b42118015610f9a5750610f976203f480600954610eb090919063ffffffff16565b42105b15610fa857600a9250610fef565b610fc06203f480600954610eb090919063ffffffff16565b42118015610fe45750610fe162054600600954610eb090919063ffffffff16565b42105b15610fee57600592505b5b5b5b61102961101a606461100c8688610e7d90919063ffffffff16565b6110b090919063ffffffff16565b85610eb090919063ffffffff16565b9150611058670de0b6b3a764000061104a8885610e7d90919063ffffffff16565b6110b090919063ffffffff16565b905080945050505050919050565b6000806000836110836005546004546110cb90919063ffffffff16565b10159150600654841015801561109b57506007548411155b90508180156110a75750805b92505050919050565b60008082848115156110be57fe5b0490508091505092915050565b60008282111515156110d957fe5b8183039050929150505600a165627a7a72305820f6d4654bb6a20ccc9806bbdd681825662e42e6c7b69dc1ec0c45c8584035272e0029",
  "source": "pragma solidity ^0.4.11;\n\nimport \"./math/SafeMath.sol\";\nimport \"./lifecycle/Destructible.sol\";\nimport \"./lifecycle/Pausable.sol\";\nimport \"./ownership/WhiteList.sol\";\nimport \"./HelloWorldToken.sol\";\n\n\n/**\n * @title TokenSeller\n * @dev The main token sale contract.\n * @dev During ICO the owner will transfer an amount of Token equal to saleTarget this contract \n */\ncontract TokenSeller is Pausable, Destructible {\n    using SafeMath for uint;\n    event TokenSold(address recipient, uint eth, uint tokens);\n    event SaleClosed();\n\n    HelloWorldToken public token; // Token contract\n    WhiteList public whitelist; // Contract that contain list of eligible addresses\n    address public wallet;\n\n    uint public saleTarget = 400000000; // target for public ICO is 400 Millions\n    uint public amountSold; // Amount of tokens sold to buyer\n\n    uint public minToken = 1000; // Buyer must purchase Token MORE THAN OR EQUAL this amount\n    uint public maxToken = 10000000; // Buyer must purchase Token LESS THAN OR EQUAL this amount\n\n    uint public rate = 1000; // 1000 Tokens per 1 ETH\n    uint public start = 1504112400; // Timestamp of start date in seconds, from http://currentmillis.com/\n    uint public duration = 31; // Duration of sale in days\n \n    /* now (uint): alias of block.timestamp which is the current block timestamp as seconds since unix epoch */\n\n    /**\n    * @dev modifier to allow token creation only when the sale IS ON\n    */\n    modifier saleIsOn() {\n        require(now > start && now < start.add(duration.mul(1 days)));  // Current time is still in sale duration\n        _;\n    }\n\n    /**\n    * @dev modifier to allow token sell only if saleTarget is not reach\n    */\n    modifier targetNotReached() {\n        require(amountSold < saleTarget); // Amount of token sold must be less than targetted amount\n        _;\n    }\n\n    /**\n    * Constructor that identify token contract and \n    * assign whitelist for this contract to look into\n    * and wallet address to transfer received ETH to.\n    */\n    function TokenSeller(address _token, address _whitelist) {\n        token = HelloWorldToken(_token);\n        whitelist = WhiteList(_whitelist);\n        wallet = owner;\n    }\n\n    /**\n    * @dev Allows only whitelisted address who transfer ETH\n    * to contract account to receive Tokens. This method also transfer \n    * received ETH to the owner.\n    * @param recipient the recipient to receive tokens. \n    * @param etherPaid amount received in wei: 1000000000000000000 wei = 1 ether \n    */\n    function sell(address recipient, uint etherPaid) targetNotReached saleIsOn whenNotPaused internal {\n        require(whitelist.isWhiteListed(recipient));    // recipient must be in whitelist\n        uint tokens = exchange(etherPaid);              // convert received ETH to Tokens\n        require(isAmountValid(tokens));                 // validate amount\n        require(token.transfer(recipient, tokens));     // transfer Token from this contract to recipient\n        amountSold = amountSold.add(tokens);            // record amount sold\n        wallet.transfer(etherPaid);                     // transfer received ETH to MultiSignatureWallet\n        TokenSold(recipient, etherPaid, tokens);        // log event\n    }\n\n    /**\n    * @dev Check if this contract still have enough token to sell.\n    * @dev Determine if this amount of token is more than minimun amount\n    * and less than maximun amount.\n    * @param amount amount of token to be transferred to buyer\n    */\n    function isAmountValid(uint amount) internal returns (bool) {\n        bool isEnoungh = saleTarget.sub(amountSold) >= amount;          // this contract still have enough tokens left to sell\n        bool isInRange = (amount >= minToken && amount <= maxToken);    // amount is higher than minimun and lower than maximun\n        return isEnoungh && isInRange;                                  // both condition must be true\n    }\n\n    /**\n    * @dev Get number of tokens corresponding to ETH received\n    * @param value an ETH amount in wei, 1000000000000000000 wei = 1 ether\n    */\n    function exchange(uint value) internal returns (uint) {\n        uint base = rate;                                                  // base price (1000 tokens / 1 ether)\n        uint bonus = 0;\n        if (now > start && now < start.add(1 days)) {                      // during first date\n            bonus = 20;                                                    // bonus 20%\n        } else if (now > start.add(1 days) && now < start.add(2 days)) {   // during second date\n            bonus = 15;                                                    // bonus 15%\n        } else if (now > start.add(2 days) && now < start.add(3 days)) {   // during third date\n            bonus = 10;                                                    // bonus 10%\n        } else if (now > start.add(3 days) && now < start.add(4 days)) {   // during forth date\n            bonus = 5;                                                     // bonus 5%\n        }\n        uint actualRate = base.add(base.mul(bonus).div(100));              // amount of tokens(plus bonus) per 1 ether\n        uint amount = actualRate.mul(value).div(1 ether);                  // rate multiplied by value(in wei) and divided by 1 ether\n        return amount;                                            \n    }\n  \n    /**\n    * @dev Allows the owner to finish the selling. This will transfer \n    * all remaining Tokens to this owner. Then the ownership of the   \n    * token contract is also transfered to this owner.\n    */\n    function closeSale() external onlyOwner {\n        token.transfer(owner, token.balanceOf(this)); // transfer all remaining Tokens to owner\n        SaleClosed();\n    }\n\n    /**\n    * @dev Fallback function which receives ETH and created \n    * the appropriate number of tokens for the msg.sender.\n    */\n    function() external payable {\n        sell(msg.sender, msg.value); // give tokens to msg.sender\n    }\n\n}\n",
  "sourcePath": "/Users/thanyapatk/Documents/workspace/work/helloworld-ico/contracts/TokenSeller.sol",
  "compiler": {
    "name": "solc",
    "version": "0.4.19+commit.c4cbbb05.Emscripten.clang"
  },
  "schemaVersion": "1.0.1",
  "updatedAt": "2018-02-07T10:42:34.744Z"
}