{
  "contractName": "WhiteList",
  "abi": [
    {
      "constant": true,
      "inputs": [],
      "name": "owner",
      "outputs": [
        {
          "name": "",
          "type": "address"
        }
      ],
      "payable": false,
      "stateMutability": "view",
      "type": "function"
    },
    {
      "constant": false,
      "inputs": [
        {
          "name": "newOwner",
          "type": "address"
        }
      ],
      "name": "transferOwnership",
      "outputs": [],
      "payable": false,
      "stateMutability": "nonpayable",
      "type": "function"
    },
    {
      "inputs": [],
      "payable": false,
      "stateMutability": "nonpayable",
      "type": "constructor"
    },
    {
      "anonymous": false,
      "inputs": [
        {
          "indexed": false,
          "name": "_addr",
          "type": "address"
        },
        {
          "indexed": false,
          "name": "isWhiteListed",
          "type": "bool"
        }
      ],
      "name": "WhiteListAddress",
      "type": "event"
    },
    {
      "constant": true,
      "inputs": [
        {
          "name": "index",
          "type": "uint256"
        }
      ],
      "name": "addressAtIndex",
      "outputs": [
        {
          "name": "",
          "type": "address"
        }
      ],
      "payable": false,
      "stateMutability": "view",
      "type": "function"
    },
    {
      "constant": true,
      "inputs": [
        {
          "name": "_addr",
          "type": "address"
        }
      ],
      "name": "isWhiteListed",
      "outputs": [
        {
          "name": "",
          "type": "bool"
        }
      ],
      "payable": false,
      "stateMutability": "view",
      "type": "function"
    },
    {
      "constant": false,
      "inputs": [
        {
          "name": "_addrs",
          "type": "address[]"
        }
      ],
      "name": "add",
      "outputs": [],
      "payable": false,
      "stateMutability": "nonpayable",
      "type": "function"
    },
    {
      "constant": false,
      "inputs": [
        {
          "name": "_addrs",
          "type": "address[]"
        }
      ],
      "name": "remove",
      "outputs": [],
      "payable": false,
      "stateMutability": "nonpayable",
      "type": "function"
    }
  ],
  "bytecode": "0x6060604052341561000f57600080fd5b336000806101000a81548173ffffffffffffffffffffffffffffffffffffffff021916908373ffffffffffffffffffffffffffffffffffffffff160217905550600260018161005e9190610102565b503360018081548110151561006f57fe5b906000526020600020900160006101000a81548173ffffffffffffffffffffffffffffffffffffffff021916908373ffffffffffffffffffffffffffffffffffffffff1602179055506001600260003373ffffffffffffffffffffffffffffffffffffffff1673ffffffffffffffffffffffffffffffffffffffff16815260200190815260200160002081905550610153565b81548183558181151161012957818360005260206000209182019101610128919061012e565b5b505050565b61015091905b8082111561014c576000816000905550600101610134565b5090565b90565b610828806101626000396000f300606060405260043610610078576000357c0100000000000000000000000000000000000000000000000000000000900463ffffffff1680635e4ba17c1461007d5780636f9170f6146100ab5780638da5cb5b146100fc5780638f4a43c114610151578063c4c1c94f146101b4578063f2fde38b146101e2575b600080fd5b341561008857600080fd5b6100a96004808035906020019082018035906020019190919290505061021b565b005b34156100b657600080fd5b6100e2600480803573ffffffffffffffffffffffffffffffffffffffff169060200190919050506102cd565b604051808215151515815260200191505060405180910390f35b341561010757600080fd5b61010f610318565b604051808273ffffffffffffffffffffffffffffffffffffffff1673ffffffffffffffffffffffffffffffffffffffff16815260200191505060405180910390f35b341561015c57600080fd5b610172600480803590602001909190505061033d565b604051808273ffffffffffffffffffffffffffffffffffffffff1673ffffffffffffffffffffffffffffffffffffffff16815260200191505060405180910390f35b34156101bf57600080fd5b6101e060048080359060200190820180359060200191909192905050610383565b005b34156101ed57600080fd5b610219600480803573ffffffffffffffffffffffffffffffffffffffff16906020019091905050610435565b005b60008060009054906101000a900473ffffffffffffffffffffffffffffffffffffffff1673ffffffffffffffffffffffffffffffffffffffff163373ffffffffffffffffffffffffffffffffffffffff1614151561027857600080fd5b600090505b828290508110156102c8576102bb838383818110151561029957fe5b9050602002013573ffffffffffffffffffffffffffffffffffffffff1661050f565b808060010191505061027d565b505050565b600080600260008473ffffffffffffffffffffffffffffffffffffffff1673ffffffffffffffffffffffffffffffffffffffff16815260200190815260200160002054119050919050565b6000809054906101000a900473ffffffffffffffffffffffffffffffffffffffff1681565b6000600180830181548110151561035057fe5b906000526020600020900160009054906101000a900473ffffffffffffffffffffffffffffffffffffffff169050919050565b60008060009054906101000a900473ffffffffffffffffffffffffffffffffffffffff1673ffffffffffffffffffffffffffffffffffffffff163373ffffffffffffffffffffffffffffffffffffffff161415156103e057600080fd5b600090505b8282905081101561043057610423838383818110151561040157fe5b9050602002013573ffffffffffffffffffffffffffffffffffffffff16610666565b80806001019150506103e5565b505050565b6000809054906101000a900473ffffffffffffffffffffffffffffffffffffffff1673ffffffffffffffffffffffffffffffffffffffff163373ffffffffffffffffffffffffffffffffffffffff1614151561049057600080fd5b600073ffffffffffffffffffffffffffffffffffffffff168173ffffffffffffffffffffffffffffffffffffffff16141515156104cc57600080fd5b806000806101000a81548173ffffffffffffffffffffffffffffffffffffffff021916908373ffffffffffffffffffffffffffffffffffffffff16021790555050565b6000600260008373ffffffffffffffffffffffffffffffffffffffff1673ffffffffffffffffffffffffffffffffffffffff168152602001908152602001600020549050600060018281548110151561056457fe5b906000526020600020900160006101000a81548173ffffffffffffffffffffffffffffffffffffffff021916908373ffffffffffffffffffffffffffffffffffffffff1602179055506000600260008473ffffffffffffffffffffffffffffffffffffffff1673ffffffffffffffffffffffffffffffffffffffff168152602001908152602001600020819055507fd12085b5090e5fdbfc9506823d4c470c80dadad7ff38cec11b8c8e7f2d604a9d826000604051808373ffffffffffffffffffffffffffffffffffffffff1673ffffffffffffffffffffffffffffffffffffffff168152602001821515151581526020019250505060405180910390a15050565b61066f816102cd565b15151561067b57600080fd5b600180549050600260008373ffffffffffffffffffffffffffffffffffffffff1673ffffffffffffffffffffffffffffffffffffffff16815260200190815260200160002081905550600180548091906001016106d891906107ab565b50806001808080549050038154811015156106ef57fe5b906000526020600020900160006101000a81548173ffffffffffffffffffffffffffffffffffffffff021916908373ffffffffffffffffffffffffffffffffffffffff1602179055507fd12085b5090e5fdbfc9506823d4c470c80dadad7ff38cec11b8c8e7f2d604a9d816001604051808373ffffffffffffffffffffffffffffffffffffffff1673ffffffffffffffffffffffffffffffffffffffff168152602001821515151581526020019250505060405180910390a150565b8154818355818115116107d2578183600052602060002091820191016107d191906107d7565b5b505050565b6107f991905b808211156107f55760008160009055506001016107dd565b5090565b905600a165627a7a723058209d2b7b825f40611479c282be420a94fa5ba85fe30fc2ca892fba501caa3e74540029",
  "source": "pragma solidity ^0.4.11;\n\nimport './Ownable.sol';\n\n\ncontract WhiteList is Ownable {\n\n    address[] whiteList;\n    mapping(address => uint) whiteListIndex;\n    event WhiteListAddress(address _addr, bool isWhiteListed);\n\n    modifier onlyWhiteListed() {\n        require(isWhiteListed(msg.sender));\n        _;\n    }\n\n    function WhiteList() {\n        whiteList.length = 2;\n        whiteList[1] = msg.sender;\n        whiteListIndex[msg.sender] = 1;\n    }\n\n    function addressAtIndex(uint index) external constant returns(address) {\n        return address(whiteList[index + 1]);\n    }\n\n    function isWhiteListed(address _addr) constant returns(bool) {\n        return whiteListIndex[_addr] > 0;\n    }\n\n    function addToWhiteList(address _addr) internal {\n        require(!isWhiteListed(_addr)); // _addr must not already added to whitelist\n        whiteListIndex[_addr] = whiteList.length;\n        whiteList.length++;\n        whiteList[whiteList.length - 1] = _addr;\n        WhiteListAddress(_addr, true);\n    }\n\n    function removeFromWhiteList(address _addr) internal {\n        uint index = whiteListIndex[_addr];\n        whiteList[index] = address(0x0);\n        whiteListIndex[_addr] = 0;\n        WhiteListAddress(_addr, false);\n    }\n\n    function add(address[] _addrs) external onlyOwner {\n        for (uint i = 0; i < _addrs.length; i++) {\n            addToWhiteList(_addrs[i]);\n        }\n    }\n\n    function remove(address[] _addrs) external onlyOwner {\n        for (uint i = 0; i < _addrs.length; i++) {\n            removeFromWhiteList(_addrs[i]);\n        }\n    }\n\n}",
  "sourcePath": "/Users/thanyapatk/Documents/workspace/work/helloworld-ico/contracts/ownership/WhiteList.sol",
  "compiler": {
    "name": "solc",
    "version": "0.4.19+commit.c4cbbb05.Emscripten.clang"
  },
  "schemaVersion": "1.0.1",
  "updatedAt": "2018-02-07T10:42:34.748Z"
}